:020000040800F2
:10000000000B001009030008672D00087B2B000877
:10001000652D0008210D0008713600080000000061
:10002000000000000000000000000000490200087D
:100030002F0D000800000000A5020008292E00086E
:1000400023030008230300082303000823030008F8
:1000500023030008230300082303000823030008E8
:1000600023030008230300082303000823030008D8
:1000700023030008230300082303000823030008C8
:1000800023030008230300082303000823030008B8
:1000900023030008230300082303000823030008A8
:1000A0002303000823030008230300082303000898
:1000B000BD2E0008230300080000000023030008F1
:1000C00023030008000000000000000023030008D4
:1000D0000000000023030008AD35000823030008DA
:1000E00023030008230300080000000000000000B4
:1000F0000000000000000000000000000000000000
:1001000000000000000000000000000000000000EF
:100110000000000000000000C92E000823030008B2
:1001200000000000000000000000000000000000CF
:1001300000000000000000000000000000000000BF
:100140002303000823030008000000000000000053
:10015000000000000000000000000000000000009F
:10016000000000000000000000000000000000008F
:10017000000000000000000000000000000000007F
:10018000000000002303000800F002F800F04DF822
:100190000AA090E8000C82448344AAF10107DA45E2
:1001A00001D100F042F8AFF2090EBAE80F0013F0E7
:1001B000010F18BFFB1A43F001031847145B00003E
:1001C000545B0000103A24BF78C878C1FAD85207AF
:1001D00024BF30C830C144BF04680C6070470000C1
:1001E0000023002400250026103A28BF78C1FBD840
:1001F000520728BF30C148BF0B607047752900F017
:100200008781732900F0AB83002070471FB505F08C
:1002100003FC00F0B5FC04000020002105F0E6FB23
:10022000401C60601FBD10B510BD00F084FC11467D
:10023000FFF7ECFF03F0C0FB00F0B4FC03B4FFF7E2
:10024000F2FF03BC00F0F8FC2C4B19680868B0E81A
:10025000F04F80F30988BFF36F8F4FF0000080F3F9
:10026000118870470000000008480068006880F3AB
:1002700008884FF0000080F3148862B661B6BFF3BF
:100280004F8FBFF36F8F00DF00BF00BF08ED00E0AE
:10029000DFF80C00016841F470010160704700BF95
:1002A00088ED00E0EFF30980BFF36F8F134B1A68FE
:1002B0001EF0100F08BF20ED108A20E9F04F1060EB
:1002C00009B44FF0500080F31188BFF34F8FBFF394
:1002D0006F8F04F0FBFC4FF0000080F3118809BC25
:1002E00019680868B0E8F04F1EF0100F08BFB0ECB6
:1002F000108A80F30988BFF36F8F70474C0000208D
:10030000EFF305807047000009488047094800471F
:10031000FEE7FEE7FEE7FEE7FEE7FEE7FEE7FEE7B5
:10032000FEE7FEE704480549054A064B7047000012
:10033000AD2E00088901000800290020000B0010E4
:10034000002B00200007001053EA020C00F0698027
:100350002DE9F04B4FF00006002B1FBFB3FA83F5D9
:1003600003FA05F424FA05F65E4012BF1643B2FA0A
:1003700082F502FA05F4C5F120051EBF22FA05FC3C
:1003800044EA0C04203556EA044C4FEA144418BFE2
:10039000641C4FF000084FF00009904271EB030C11
:1003A00039D3002919BFB1FA81F701FA07F6B0FA7B
:1003B00080F700FA07F6C7F120071EBF20FA07FCF6
:1003C00046EA0C062037B6FBF4FCA7EB0507103F06
:1003D00007F01F0BCBF120060CFA0BFB2CFA06F6EC
:1003E00044BFB3460026202FA4BF5E464FF0000B4B
:1003F0005BEA060C08BF4FF0010B19EB0B09ABFBD6
:10040000027C48EB0608C01B06FB02CC0BFB03CCAE
:1004100071EB0C01C1E70B46024641464846BDE878
:10042000F08B13B54FF000004FF00001AFF30080E8
:10043000BDE81C40704700000FB47CB50C0009AA51
:10044000009001D02044401E084B7B446946019037
:10045000089800F052FA05461CB10020694600F0E9
:100460005FFA28467CBC5DF814FB0000DD04000048
:1004700070B5044685690068C10601D5302600E0E4
:100480002026C00707D070BDD4E90121304690472F
:10049000206A401C20626D1EF6D570BD70B5044602
:1004A00085690078C00707D170BDD4E901212020FB
:1004B0009047206A401C20626D1EF6D570BD70B555
:1004C0000C460546012A05D02878800600D5EA6941
:1004D000002302E0012305E05B1C934202D2E05CB2
:1004E0000028F9D1A869E618C01AA861286A18443A
:1004F00028622846FFF7BCFF04E0D5E9012114F883
:10050000010B9047B442F8D32846FFF7C7FF70BDF0
:100510002DE9F0410646002410687529314616A5DC
:1005200010D0AFF30080002802DA404213A507E0A4
:1005300031688A0701D512A502E0490704D511A543
:10054000012401E0AFF3008000210A2206F1240714
:1005500009E0B0FBF2FCB0FBF2F302FB1C00303010
:1005600078541846491C0028F3D123462A463046C1
:10057000BDE8F04100F062B9000000002D0000006D
:100580002B000000200000002DE9F0474FF0000A8A
:1005900089460446C0F820A02046E1688847002824
:1005A00076D0252806D0D4E901219047206A401C46
:1005B0002062F1E7E168204600258847C4F81CA0C6
:1005C00006460027C4F818A02A2E09D0304603F0AA
:1005D00060F838B304EB8708303EC8F8186019E0BB
:1005E00059F8041B204604EB87029161E1688847B3
:1005F000012F064618D1E069002820DA25F02005F1
:100600001DE0D8F8180000EB800006EB4000303801
:10061000C8F818002046E1688847064603F039F814
:100620000028EED1012F0AD02E2E08D12046E168F5
:1006300088477F1C0646022F45F02005C4DBA069D1
:10064000002803DA404245F00105A061E80701D027
:1006500025F01005B6B1A6F14100192802D82036C0
:1006600045F400654A463146204625604D46FFF771
:10067000C5FD58B1012806D0ED1D25F0070000F199
:10068000080989E704E005F1040985E730468AE7AF
:10069000206ABDE8F08770B5064600F0CBF8046824
:1006A000054630460A22002100F05DF92C6070BD3D
:1006B00040EA010370B59B072ED14FF00136042AA2
:1006C0002AD308C810C99D1B9D43121F15EAC615E1
:1006D00017D0D8B2E1B2401A50EA056110D198B2F1
:1006E000A1B2401A50EA05410AD123F07F4024F01C
:1006F0007F41401A50EA052102D1180EA0EB146088
:1007000070BDA342DBD018BA21BA884201D90120BA
:1007100070BD4FF0FF3070BD0AB9002070BD10F8F9
:10072000013B11F8014B63B1A3420AD1521E08D01C
:1007300010F8013B11F8014B1BB1A34201D1521E2D
:10074000EDD1181B70BD032A40F2308010F0030C6D
:1007500000F0158011F8013BBCF1020F624498BF14
:1007600011F801CB00F8013B38BF11F8013BA2F1B1
:10077000040298BF00F801CB38BF00F8013B11F02C
:10078000030300F02881083AC0F0088051F8043BC8
:10079000083A51F804CBA0E80810F5E7121D5CBF39
:1007A00051F8043B40F8043BAFF30080D20724BF6C
:1007B00011F8013B11F801CB48BF11F8012B24BF00
:1007C00000F8013B00F801CB48BF00F8012B70474F
:1007D00002F0FF0343EA032242EA024200F02FB98B
:1007E0004FF0000200B5134694469646203922BFCA
:1007F000A0E80C50A0E80C50B1F12001BFF4F7AF15
:10080000090728BFA0E80C5048BF0CC05DF804EBF6
:10081000890028BF40F8042B08BF704748BF20F864
:10082000022B11F0804F18BF00F8012B7047704762
:1008300070477047004870479C0600102DE9F0474C
:100840000D4699469246044600F124080168880640
:1008500004D5E06921F01001216000E00120A842E8
:1008600001DD471B00E00027A1697A1902EB0900AE
:10087000081AA0612078C00602D42046FFF7F8FDD0
:10088000002608E0D4E901211AF806009047206A02
:10089000401C761C20624E45F4DB2078C0060AD549
:1008A0002046FFF7E5FD06E0D4E90121302090471E
:1008B000206A401C2062381EA7F10107F4DC07E023
:1008C000D4E9012118F805009047206A401C2062F5
:1008D000281EA5F10105F3DC2046FFF7DFFD207897
:1008E000000602D50220BDE8F0870120FBE70000EA
:1008F00001694A1C02610878704700B58FB0CDE9E4
:1009000001310021059105497944CDE903101146D3
:100910006846FFF739FE0FB000BD0000E5FFFFFF9E
:100920000A6802F8010B0A607047D1E900239A4275
:1009300002D2531C0B601070704710B5436913B19D
:10094000AFF3008001E0FFF7BAFD012010BD12787F
:1009500000F124010A7000224A700122EDE71168BB
:100960004FF0FF32E9E72DE9F04791460F46804608
:100970000446002614F8015B2DB100F085F80068EC
:10098000405DC007F6D12B2D02D02D2D18D0641E4E
:100990004A463946204600F07FF827B13968A1421F
:1009A00001D1C7F800804FF0020471050BD5404219
:1009B000002803DDFFF73EFF0460A007BDE8F087D5
:1009C00046F48066E4E70028F8DAFFF733FF0460B6
:1009D0006FF00040F2E710B5203AC0F00B80B1E8AC
:1009E0001850203AA0E81850B1E81850A0E8185064
:1009F000BFF4F5AF5FEA027C24BFB1E81850A0E86D
:100A0000185044BF18C918C0BDE810405FEA827C86
:100A100024BF51F8043B40F8043B08BF7047D2079D
:100A200028BF31F8023B48BF11F8012B28BF20F83E
:100A3000023B48BF00F8012B70474FF00002042929
:100A4000C0F0128010F0030C3FF4CCAECCF1040CDB
:100A5000BCF1020F18BF00F8012BA8BF20F8022B31
:100A6000A1EB0C01FFF7BEBE5FEAC17C24BF00F81A
:100A7000012B00F8012B48BF00F8012B7047000044
:100A8000004870479C06001010B500F079F8001D72
:100A900010BD00BF594F00002DE9F05F824615469A
:100AA0008B4600270AF10104B9460078302801D0AE
:100AB0009DB113E014F8010B0127782803D05828C2
:100AC00001D045B10AE00DB1102D07D1002714F86F
:100AD000010B102502E0082500E00A250026B0469B
:100AE0000EE005FB080005FB06F101271FFA80F860
:100AF00001EB1046B6F5803F00D3B94614F8010B60
:100B0000294600F041F80028EBDABBF1000F05D0D0
:100B10000FB1641E00E05446CBF80040B9F1000F5D
:100B200006D0FFF787FE02210160C81EBDE8F09FD6
:100B300048EA0640FAE77546FFF7A2FFAE46050011
:100B40006946534620F00700854618B020B5FFF7E8
:100B5000E9FBBDE820404FF000064FF000074FF0E2
:100B600000084FF0000B21F00701AC46ACE8C009CB
:100B7000ACE8C009ACE8C009ACE8C0098D467047D4
:100B800000487047BC0600103A2800D2303820F0E8
:100B90002002412A01D3A2F13700884201D34FF04D
:100BA000FF30704710B50446AFF300802046BDE823
:100BB0001040FFF743BB00004FF0013C50F8042BFE
:100BC00051F8043B9A4221D1A2EB0C03934313EA60
:100BD000CC1317D150F8042B51F8043B9A4215D18D
:100BE000A2EB0C03934313EACC130BD150F8042B64
:100BF00051F8043B9A4209D1A2EB0C03934313EA48
:100C0000CC13DBD04FF00000704700BFD01A01BA00
:100C1000B1FA81F101F0180122FA01F0CB40C1F1E3
:100C20002001DBB2C0B2C01A2CFA01F3D11A9143F1
:100C300011EAC311E6D1704701491820ABBEFEE7A7
:100C4000260002007047000070B504460068816805
:100C500001F0030101292AD10168C90727D0816861
:100C600001F00D01012914D1816841F00201816078
:100C700021680320086000F07BFE054613E000BFFA
:100C800000F076FE401B02280DD920688068C0075E
:100C900009D0206C40F010002064606C40F001002E
:100CA0006064012070BD20688068C007E8D1002022
:100CB00070BD000070B504460068816801F0030152
:100CC000012902D10168C90725D18168134A11425F
:100CD00012D1816841F00101816000F049FE0546B2
:100CE00014E000BF00F044FE401B02280ED920682B
:100CF0000068C043C00709D0206C40F01000206499
:100D0000606C40F001006064012070BD20680068E4
:100D1000C043C007E6D1002070BD00003F00008046
:100D2000FEE702F011FD322002F012FFF9E77047F2
:100D3000104C4FF0FF394D464946E06B02F05EFF24
:100D4000B4F80E806778E06B02F0CEFF2946A06B06
:100D500002F054FFA6892578A06B02F0C5FF2B4650
:100D600032463946404602F047FD642002F0F0FE6C
:100D7000E1E700000000002008B572B6064D074C00
:100D80000821284600F0E7FD009400E000BF00992C
:100D9000481E0090F4D3F9E700040048400D03001A
:100DA0002DE9F041044690F83C00884601280AD01D
:100DB000012584F83C502046FFF746FF06004FF01F
:100DC000000703D037E00220BDE8F08125642068E9
:100DD000816821F080418160B8F1010F04D1206861
:100DE000816841F0804181602068816841F0004164
:100DF000816000F0BDFD054613E000BF00F0B8FDC6
:100E0000401B0A280DD920688068002809DA206C68
:100E100020F0020040F01000206484F83C700120B3
:100E2000D2E7206880680028E8DB206C20F0020010
:100E300040F00100206484F83C703046C4E70000B4
:100E400070B5026800234FF0A04494B0A24200D1D4
:100E5000314C009490F83C40012C1FD0012480F8C4
:100E60003C40926852074CD4009A9268520748D48A
:100E70002A4A0D6840F61F7445B3956890F83060B3
:100E800025F4604545EA46354E683543956005686A
:100E9000AE6806F00306012E06D102E0022014B06F
:100EA00070BD2D68ED0731D1009DAD6805F00305DB
:100EB000012D03D1009D2D68ED0727D10D688968AC
:100EC0000D439168A1430D4395601FE0916821F4A3
:100ED0006041916001688D6805F00305012D02D124
:100EE0000968C90712D10099896801F00301012935
:100EF00003D100990968C90708D19168A14391609D
:100F000004E0016C41F0200101640123002180F81C
:100F10003C101846C3E700000001005000030050D9
:100F2000F0B594B00025009590F83C202E46012A9B
:100F300019D0012780F83C7003689A6852077CD466
:100F40004A681F24052A11D2D3F830C002EB4202AE
:100F5000520094402CEA040C0C6894404CEA040CB7
:100F6000C3F830C035E0022014B0F0BD0A2A0FD219
:100F7000D3F834C0521F02EB4202520094402CEAD4
:100F8000040C0C6894404CEA040CC3F834C020E014
:100F90000F2A0FD2D3F838C00A3A02EB42025200AD
:100FA00094402CEA040C0C6894404CEA040CC3F8FE
:100FB00038C00EE0D3F83CC00F3A02EB42025200B8
:100FC00094402CEA040C0C6894404CEA040CC3F8DE
:100FD0003CC00268936813F00C0F4FF0070374D104
:100FE000D1F800E0BEF10A0F10D39469AEF10A0EF9
:100FF0000EEB4E0C03FA0CFE24EA0E04D1F808E0C6
:101000000EFA0CFE44EA0E0494610FE0D2F814C00C
:101010000EEB4E0403FA04FE2CEA0E0CD1F808E0A5
:101020000EFA04FE4CEA0E0CC2F814C002684C69B9
:10103000D2F80CC0CCF3C10C00E0E1E04FEA4C0C5C
:1010400004FA0CF4D1F810E0DFF810C2BEF1010F81
:1010500042D0BEF1020F4DD0BEF1030F58D0BEF109
:10106000040F63D0146E91F800C004F0F844B4EBA0
:101070008C6F03D1146E24F0004414660268546E21
:1010800091F800C004F0F844B4EB8C6F03D1546EB7
:1010900024F0004454660268946E91F800C004F095
:1010A000F844B4EB8C6F03D1946E24F00044946642
:1010B0000268D46E91F800C004F0F844B4EB8C6F71
:1010C00003D1D46E24F00044D4660268946804F01E
:1010D0000304012C3AD136E0D2F860E00EEA0C0E9F
:1010E00091F800C044EA8C644EEA040E4EF00044CD
:1010F0001466EAE7D2F864E00EEA0C0E91F800C03C
:1011000044EA8C644EEA040E4EF000445466DCE778
:10111000D2F868E00EEA0C0E91F800C044EA8C6444
:101120004EEA040E4EF000449466CEE7D2F86CE02E
:101130000EEA0C0E91F800C044EA8C644EEA040EEC
:101140004EF00044C0E71468E4075ED1CC68012C7F
:1011500006D052F8B03F0C78A740BB43136020E0A4
:1011600052F8B04F91F800C007FA0CF73C431460F6
:101170000A6804680A2A0AD3A769093A02EB4202FC
:1011800093409F438B6893401F43A76109E06769C1
:10119000521C02EB420293409F438B6893401F43D3
:1011A000676109682E4A102904D0112905D0122937
:1011B00006D02AE093681B0204E09368DB0101E09B
:1011C00093685B02002B20DB03684FF0A044A3422E
:1011D00002D1244F009700E000949F6807F00307B6
:1011E000012F02D11F68FF070AD1009F8FB1BF688E
:1011F00007F00307012F0CD1009F3F68FF0708D0BD
:10120000016C41F020010164012580F83C60284612
:10121000AAE6102908D011291AD01229F5D191680F
:1012200041F480019160F0E7A342EED1916841F46E
:10123000000191600C490D4A0968B1FBF2F101EB24
:101240008101490000E0491E00910029FBD1DCE743
:10125000A342DAD1916841F08071E3E700F0FF83A7
:1012600000030050000100500000001040420F0039
:101270000068006C70470000F0B54FF0000595B0B5
:1012800004002F462E46009505D0206CC00648D499
:10129000206C18B133E0012015B0F0BD6664E6643F
:1012A000A66484F83C60204600F0D8F82068806886
:1012B000C00024D42046FFF7C7FC0546206CC006BA
:1012C0001DD4E5B9206C20F4885040F00200206461
:1012D0002068816821F0405181602068816841F078
:1012E00080518160574858490068B0FBF1F000EB2D
:1012F0008000400000E0401E00900028FBD12068E4
:101300008168C90002D5806880000AD5206C20F071
:10131000020040F010002064606C40F00100606446
:101320000125206CC0067DD4002D7BD1206881680A
:1013300049077ED4216C21F4807141F002012164BF
:1013400042494FF0A042904200D1414A0092826847
:1013500002F00302012A02D10068C00710D10098F0
:1013600040B1806800F00300012803D100980068B4
:10137000C00705D18868626820F440301043886057
:10138000D4E902100843616B012902D04FF4805266
:1013900000E00022617E42EA4132104394F82020AE
:1013A0003843012A0AD1A9B1216C21F0020141F090
:1013B00020012164616C41F001016164A16A01298D
:1013C00002D0E26A1143084321688A6812F00C0FC8
:1013D00008D013E0A18C1F4A02EB4141014341F4C4
:1013E0008030EBE7CA6844F202039A43CA60217E68
:1013F00094F83020890341EA420108432168CA6811
:10140000154B1A400243CA60206901282068016B0D
:1014100021F00F0102D1E269521E1143016366649B
:10142000206C00E005E020F0020040F001002064A4
:1014300006E0206C20F0020040F01000206401253E
:10144000284629E70000001040420F00000300502A
:10145000000100500000FEFF07C0F0FF10B586B08D
:10146000044614216846FFF7BBF92068B0F1A04F8D
:101470001AD10E48416941F080514161416901F042
:1014800080510591416941F480214161406969467B
:1014900000F480200590012000900320019000209E
:1014A0000290034800F042F906B010BD001002405F
:1014B000000400482DE9F047044640690E464FF00D
:1014C0000008082810D034488168C9060ED080680A
:1014D00000F4404070B1206C40F02000206484F89B
:1014E0003C800120BDE8F087082504E02068C06842
:1014F000C007EFE70C254FF0A040D0F80813C9064D
:1015000002D02168814200D12068C76800F030FA1B
:10151000814614E0701C12D02EB100F029FAA0EB25
:101520000900B0420BD920680068284207D1206C1E
:1015300040F00400206484F83C800320D2E7206857
:1015400000682842E6D0206C40F4007020642068D7
:10155000C16811F4406F1AD1B90418D401680907A1
:1015600015D581684907216C0AD421F48071216462
:10157000216CC9040BD4216C41F00101216406E007
:1015800041F020012164616C41F001016164790442
:1015900000D405600020A5E70003005070B50446A4
:1015A00000688068400760D494F83C0001280CD0A3
:1015B000012084F83C002046FFF77CFB01004FF03F
:1015C000000204D084F83C2050E0022070BD206C62
:1015D00040F60163984340F4807020644FF0A040CF
:1015E000D0F80833DB0602D02368834206D1236C8F
:1015F00023F4801323642368DB6807E0256C45F43B
:10160000801525641A4DAB4208D1C3689B0105D5EE
:10161000236C23F4005343F480532364236CDB04D2
:1016200004D5636C23F00603636400E0626484F80D
:101630003C2023681C221A60D0F80823D2060ED062
:10164000D0F8082302F01F02052A08D0D0F808239A
:1016500002F01F02092A02D02268824206D12068C5
:10166000826842F00402826000E00221084670BDF8
:101670000001005010B540B190F82110002202295D
:1016800005D00421816380F82020012010BD01686D
:101690000B6823F00E030B6001680B6823F0010355
:1016A0000B6090F84030C46B012101FA03F36360D2
:1016B00080F8211080F82020002010BD10B590F88F
:1016C00021100024022903D004218163012418E0A1
:1016D00001680A6822F00E020A6001680A6822F0B6
:1016E00001020A6090F84020C36B012101FA02F266
:1016F0005A6080F82110002180F82010416B01B160
:101700008847204610BD000070B5044600F030F94F
:101710000546601C02D004480078044400F028F913
:10172000401BA042FAD370BD400000202DE9F04FCD
:10173000DFF80092002301260325A9F1040B85B0F0
:101740000F2709F1040AABF1040EEAE006FA03F4EC
:1017500022407CD091F804C00CF0030CBCF1010FC6
:1017600002D0BCF1020F26D1D0F808C0CDF800C0DD
:101770004FEA430C05FA0CF8CDF810C0DDF800C0B4
:101780002CEA080CCDF800C0D1F80C80DDF810C0B0
:1017900008FA0CF8DDF800C048EA0C08C0F8088028
:1017A000D0F804C02CEA040C0C79C4F300149C405B
:1017B00044EA0C0444600C79E443A4070DD0D0F84B
:1017C0000CC04FEA430805FA08F42CEA040C8C68B4
:1017D00004FA08F444EA0C04C4600C7904F003042D
:1017E000022C19D1DC0800EB84040294246A4FEA2D
:1017F000437C4FEADC6CCDF810C007FA0CFC24EAFD
:101800000C04D1F81080DDF810C008FA0CF848EA92
:101810000408029CC4F8208004684FEA430805FAD3
:1018200008FC24EA0C0491F804C00CF0030C0CFA38
:1018300008FC4CEA040CC0F800C04C6814F4403FAB
:101840006ED03D4CD4F818C04CF0010C00E067E0BD
:10185000C4F818C0A46923F0030C04F00104009438
:10186000364C64440294A4684FEA837C4FEA1C78A7
:1018700007FA08FC24EA0C04B0F1904F06D0DFF818
:10188000C0C0604505D14FF0010C12E04FF0000CD4
:101890000FE0DFF8B0C0604502D14FF0020C08E065
:1018A000DFF8A4C0604502D14FF0030C01E04FF017
:1018B000050C0CFA08FC4CEA040C029CC4F808C0A5
:1018C000D9F80040CC46D1F8048094435FEAC82898
:1018D00000D51443CCF80040DAF80040D446D1F8E3
:1018E000048094435FEA882800D51443CCF8004074
:1018F000DBF80040DC46D1F8048094435FEA883886
:1019000000D51443CCF80040DEF80040F446D1F88E
:10191000048094435FEAC83800D51443CCF80040F3
:101920005B1C0A6832FA03F47FF410AF05B0BDE81F
:10193000F08F000008040140001002400000014048
:101940000004004800080048000C004800690840F6
:1019500000D001207047426921EA02030A4043EAAD
:101960000241816170470AB18161704781627047AD
:1019700001488068704700004000002002488168EC
:10198000027811448160704740000020074810B57C
:10199000016841F010010160032000F09DF80F2064
:1019A00000F006F800F050F8002010BD00200240C2
:1019B00030B505461F4887B0C16941F01001C161CB
:1019C000C06906A900F01000009001A800F03AF9E3
:1019D0000498B0B100F056F940001749174AB0FB1F
:1019E000F1F11748491E0260416040F2E7320021E0
:1019F000C0E903218160816100F0BEFC040003D0D6
:101A000015E000F03FF9E8E70D4800F003FD0400A1
:101A10000DD1362000F032F8102D07D200222946D1
:101A2000362000F039F80748056000E0012407B0CF
:101A3000204630BD0010024040420F000010004020
:101A400034000010440000200B4882B0816941F04E
:101A500001018161816901F001010091C16941F0D9
:101A60008051C161C069002200F0805000900F21B8
:101A7000901E02B000F010B800100240002809DBF0
:101A800000F01F02012191404009800000F1E02098
:101A9000C0F8001170470000F0B40E4B1B680C46F4
:101AA000C3F30223C3F10705042D00D90425191D32
:101AB000072901D2002300E0DB1E012606FA05F10A
:101AC000491E214099409E40761E16403143F0BC8D
:101AD00001F0CFBD0CED00E0064900F007020868F8
:101AE0004FF6FF03184040EA0220034A1043086003
:101AF000704700000CED00E00000FA052DE9F0470A
:101B00000F46050069D04A4E306800F00700B84221
:101B100009D2306820F0070038433060306800F0A8
:101B20000700B84259D12878424C800705D5606833
:101B3000A96820F0F000084360602878C0073DD015
:101B40006968012001290DD0022923D05FF002032A
:101B500093FAA3F2B2FA82F242F02002520904D0C0
:101B6000226803E04FF40033F2E7626A93FAA3F3CA
:101B7000B3FA83F303F01F03984002422DD060684C
:101B800020F0030008436060FFF7F2FE804641F258
:101B900088390CE04FF00073DAE700BFFFF7E8FE8A
:101BA000A0EB0801494502D90320BDE8F087606831
:101BB000696800F00C00B0EB810FEFD1306800F0E5
:101BC0000700B8420BD9306820F007003843306076
:101BD000306800F00700B84201D00120E5E728781E
:101BE000400705D56068E96820F4E060084360605C
:101BF0002878000706D56068296920F4605040EA1B
:101C0000C100606000F06EF86168F02292FAA2F202
:101C100001F0F001B2FA82F2D140074A515CC840AB
:101C20000649086006480068FFF7C2FE0020BCE7CE
:101C30000020024000100240155C00080000001067
:101C4000440000200F2202600C4A536803F0030393
:101C50004360536803F0F0038360536803F4E06368
:101C6000C36052684FF4E06303EAD20202610448A1
:101C7000006800F007000860704700000010024094
:101C80000020024008480949006849684FF4E062B2
:101C900092FAA2F201F4E061B2FA82F2D140044A6F
:101CA000515CC84070470000000000100010024066
:101CB000255C000808480949006849684FF46052EB
:101CC00092FAA2F201F46051B2FA82F2D140044ACF
:101CD000515CC84070470000000000100010024036
:101CE000255C00080F4A10B551680F4801F00C033D
:101CF000042B12D0082B10D10C4BC1F38344D26AB1
:101D00001C5D02F00F021033C9039A5C06D5002354
:101D10001946FEF719FBA0FB040110BD0448A4FB03
:101D2000000110BD0010024000127A00F55B0008AF
:101D300000093D002DE9F84F050071D02878FC4ED0
:101D4000C0074FF0010425D070686704C0F381001C
:101D5000012807D07068C0F3810002281BD1706889
:101D6000C00318D597FAA7F0B0FA80F040F0200031
:101D7000400901D0306800E0706A97FAA7F1B1FA23
:101D800081F101F01F0104FA01F1084265D0686891
:101D90000028D2D061E06868B0F5803F0BD010B168
:101DA000B0F5A02F17D0306820F480303060306854
:101DB00020F4802002E0306840F480303060F06A27
:101DC000A96820F00F000843F062686820B3FFF7AD
:101DD000CFFD80460AE0306840F480203060EAE7BA
:101DE000FFF7C6FDA0EB0800642871D897FAA7F0AA
:101DF000B0FA80F040F02000400901D0306800E0E7
:101E0000706A97FAA7F1B1FA81F101F01F0104FAA3
:101E100001F10842E4D020E0FFF7AAFD804607E088
:101E2000C2E000BFFFF7A4FDA0EB08006428DCD8E7
:101E300097FAA7F0B0FA80F040F02000400901D0F6
:101E4000306800E0706A97FAA7F1B1FA81F101F009
:101E50001F0104FA01F10842E4D12878DFF8D482A6
:101E600080074FF0000A4FF0020730D570684FF03E
:101E7000F80B10F00C0F07D07068C0F38100022837
:101E800027D17068C00324D497FAA7F0B0FA80F085
:101E900040F02000400901D0306800E0706A97FAF5
:101EA000A7F1B1FA81F101F01F0104FA01F1084232
:101EB00002D02869012877D130689BFAABF220F074
:101EC000F8016869B2FA82F29040014331605AE049
:101ED00064E1286988B394FAA4F0B0FA80F048F875
:101EE0002040FFF745FD814606E000BFFFF740FDBB
:101EF000A0EB090002289AD897FAA7F0B0FA80F070
:101F000040F02000400901D0306800E0706A97FA84
:101F1000A7F1B1FA81F101F01F0104FA01F10842C1
:101F2000E4D030689BFAABF26969B2FA82F220F031
:101F3000F80091400843306025E0FFE794FAA4F0F0
:101F4000B0FA80F048F820A0FFF712FD814605E0C6
:101F5000FFF70EFDA0EB09000228CCD897FAA7F0F6
:101F6000B0FA80F040F02000400901D0306800E075
:101F7000706A97FAA7F1B1FA81F101F01F0104FA32
:101F800001F10842E4D1287800076CD5A869A8B30C
:101F900094FAA4F0B0FA80F008EB8000C0F8804416
:101FA000FFF7E6FC814607E0A4E100BFFFF7E0FC95
:101FB000A0EB090002289ED897FAA7F0B0FA80F0AB
:101FC00040F06000B4EB501F01D130680BE097FA8D
:101FD000A7F0B0FA80F040F06000B7EB501F01D1DD
:101FE000306A00E0706A97FAA7F1B1FA81F101F066
:101FF0001F0104FA01F21042D8D034E0FFE794FA4E
:10200000A4F1B1FA81F108EB8101C1F880A4FFF7D6
:10201000AFFC814606E000BFFFF7AAFCA0EB090079
:1020200002289AD897FAA7F0B0FA80F040F0600042
:10203000B4EB501F01D130680BE097FAA7F0B0FA6B
:1020400080F040F06000B7EB501F01D1306A00E033
:10205000706A97FAA7F1B1FA81F101F01F0104FA51
:1020600001F21042D8D12878400768D5F0694FF0C6
:102070000009C00009D4F06940F08050F061F069B7
:102080004FF0010900F0805000902B480168C9050D
:1020900012D4016841F480710160FFF769FC834646
:1020A00006E000BFFFF764FCA0EB0B00642875D8C6
:1020B00021480068C005F5D5E86801280AD008B1B4
:1020C000052811D0306A20F001003062306A20F01B
:1020D000040002E0306A40F001003062E86868B352
:1020E000FFF746FC83460DE0306A40F004003062A2
:1020F000F0E700BFFFF73CFCA0EB0B0141F288309A
:1021000081424BD897FAA7F0B0FA80F040F0400037
:10211000B4EB501F01D1306813E097FAA7F0B0FA82
:1021200080F040F04000B7EB501F09D1306A08E062
:102130000010024000004242007000400CE040E00D
:10214000706A97FAA7F1B1FA81F101F01F0104FA60
:1021500001F21042CED02DE0FFF70AFC834607E0E3
:10216000FFF706FCA0EB0B0141F28830814215D845
:1021700097FAA7F0B0FA80F040F04000B4EB501F9F
:1021800001D130680CE097FAA7F0B0FA80F040F087
:102190004000B7EB501F02D1306A01E083E0706A63
:1021A00097FAA7F1B1FA81F101F01F0104FA01F2E7
:1021B0001042D5D1B9F1000F03D0F06920F0805062
:1021C000F061E86980B37168C1F38101022977D0B9
:1021D0004FF080714F000228504609D091FAA1F1CA
:1021E000B1FA81F148F82100FFF7C2FB05465DE036
:1021F000894691FAA1F1B1FA81F1C24648F821006D
:10220000FFF7B6FB804605E0FFF7B2FBA0EB080046
:10221000022848D897FAA7F0B0FA80F040F02000E2
:10222000400902D0306801E066E0706A97FAA7F1D1
:10223000B1FA81F101F01F0104FA01F10842E3D182
:10224000D5E908100843716821F4741108437060DF
:1022500099FAA9F0B0FA80F04AF82040FFF788FB1D
:10226000054604E0FFF784FB401B02281BD897FAC1
:10227000A7F0B0FA80F040F02000400901D03068AB
:1022800000E0706A97FAA7F1B1FA81F101F01F013D
:1022900004FA01F10842E5D02EE000BFFFF768FB29
:1022A000401B022802D90320BDE8F88F97FAA7F057
:1022B000B0FA80F040F02000400902D0306801E020
:1022C0000BE0706A97FAA7F1B1FA81F101F01F01F2
:1022D00004FA01F10842E1D10EE00128E4D070686F
:1022E0002A6A00F48031914204D1696A00F47010C6
:1022F000884201D00120D7E70020D5E7704770471A
:1023000070470000F0B590F83C20012A2CD0012441
:1023100080F83C40022280F83D2003685A689D689E
:10232000124EB34203D122F470074A683A4322F0B6
:1023300070070A683A435A600268B24208D0B2F1A4
:10234000804F05D00A4B9A4202D00A4B9A4204D1E0
:10235000896825F080031943916080F83D40002191
:1023600080F83C100846F0BD0220F0BD002C014072
:10237000000400400040014010B5040003D094F870
:102380003D0010B107E0012010BD002084F83C00A2
:10239000204600F023F8022084F83D00211D20682B
:1023A00000F098FD012084F8480084F83E0084F88D
:1023B0003F0084F8400084F8410084F8420084F82B
:1023C000430084F8440084F8450084F8460084F80B
:1023D000470084F83D00002010BD000008B50068EB
:1023E000B0F1804F12D10A48C16941F00101C161C9
:1023F000C069002200F00100009005211C20FFF7B9
:102400004BFBBDE808401C20FFF738BB08BD0000AF
:102410000010024090F83D10012901D001207047C2
:10242000022180F83D100168CA6842F00102CA60CA
:1024300000680D49884208D0B0F1804F05D00B49A3
:10244000884202D00A49884207D18168094A11406E
:10245000062906D0B1F5803F03D0016841F00101A3
:102460000160002070470000002C01400004004083
:10247000004001400700010070B5044690F83C00A0
:102480000025012817D0012684F83C60022084F83A
:102490003D00226890682F4B184020F47F409060E8
:1024A0000868502838D00DDC20284FD005DC90B3C8
:1024B000102811D14AE0022070BD302846D04028B3
:1024C0000AD13BE060282FD070280DD0B0F5805F96
:1024D00003D0B0F5005F12D0012584F83D600020E4
:1024E00084F83C00284670BDCB68D1E90121206802
:1024F00000F03AFD2068816841F0770109E0CB687F
:10250000D1E90121206800F02FFD2068816841F4A5
:1025100080418160E1E719E0CA684968206800F0FD
:1025200035FD5021206806E0CA684968206800F03F
:102530003EFD6021206800F021FDCEE7CA684968B1
:10254000206800F023FD40212068F4E7226801465E
:102550001046F0E788FFFEFF70472DE9F041044682
:102560000068C66805694FF00007A90713D5B107D1
:1025700011D5F91E0161012020772068806980074C
:10258000204602D0FFF7E8FF04E000F089F820467B
:1025900000F087F82777680716D5700714D52168EB
:1025A0006FF004000861022020772068806910F431
:1025B000407F204602D0FFF7CFFF04E000F070F824
:1025C000204600F06EF82777280715D5300713D579
:1025D00021686FF008000861042020772068C06936
:1025E0008007204602D0FFF7B7FF04E000F058F85C
:1025F000204600F056F82777E80616D5F00614D5E1
:1026000021686FF010000861082020772068C069F9
:1026100010F4407F204602D0FFF79EFF04E000F058
:102620003FF8204600F03DF82777E80708D0F0078C
:1026300006D021686FF001000861204600F032F8F2
:10264000280608D5300606D521686FF0800008619D
:102650002046FFF754FEE80508D5300606D5216868
:102660006FF4807008612046FFF748FE680608D5C1
:10267000700606D521686FF040000861204600F022
:102680001BF8A8060AD5B00608D521686FF020000F
:1026900008612046BDE8F041FFF732BEBDE8F08199
:1026A0007047704700680349884201D1FFF766B957
:1026B0007047000000100040704770477047704737
:1026C0002DE9F04102680446D0691168936840F62C
:1026D0000F0528424FF000054FF0020605D187068E
:1026E0007ED58F067CD5A16E2AE1DFF884C203F087
:1026F000010701EA0C0C57EA0C0C71D05FEAC07CB0
:102700000CD05FEAC15C09D54FF0010CC2F820C0C3
:10271000D4F8842042F00102C4F88420820709D54D
:10272000DA0707D022681662D4F8842042F0040247
:10273000C4F8842042070AD5DA0708D023680422A7
:102740001A62D4F8842042F00202C4F884200207FE
:102750000CD501F020023A4308D0236808221A62FF
:10276000D4F8842042F00802C4F8842002050BD576
:102770004A0109D523684FF400621A62D4F8842014
:1027800042F02002C4F88420D4F88420002A36D0F5
:10279000800605D5880603D5A16E09B12046884775
:1027A000D4F8840021688968490602D410F0280F03
:1027B00027D0204600F0CFFC2068806840061BD55B
:1027C0002068083050E8001F21F0400140E8001266
:1027D000002AF5D1606F78B166494163606F00E00F
:1027E00015E0FEF76BFF002809D0606F416B00E039
:1027F0002046BDE8F04108472046FFF760FFBDE8EE
:10280000F0812046FFF75BFFC4F88450F7E7D4F867
:1028100060C02027BCF1010F7DD15FEAC06C7ED57E
:102820005FEAC16C7BD5102010622068806840068A
:1028300042D5616F086840680004000CDFD0B4F82E
:1028400058208242DBD9A4F85A00886920282BD06E
:10285000216851E8000F20F4807041E80002002A4E
:10286000F6D12068083050E8001F21F0010140E84F
:102870000012002AF5D12068083050E8001F21F02E
:10288000400140E80012002AF5D1C4F880702566A6
:10289000206850E8001F21F0100140E80012002AD3
:1028A000F6D1606FFEF7E6FE6666B4F85800B4F83D
:1028B0005A10401A81B22CE0B4F85800B4F85A10FB
:1028C000401A81B2B4F85A00002898D0002996D056
:1028D000226852E8000F20F4907042E80003002BB9
:1028E000F6D12068083050E8002F22F0010240E8BD
:1028F0000023002BF5D1C4F880702566A5662068FA
:1029000050E8002F22F0100240E80023002BF6D1FF
:102910006666204600E002E0FFF7CFFE6FE7C602E2
:1029200009D55B0207D54FF4801010622046BDE840
:10293000F041FFF7C3BE020606D50A0604D5E16ED4
:1029400000297FF455AF5AE74006E7D54806E5D59C
:102950002046026852E8001F21F0400142E80013BF
:10296000002BF6D1C767C56600F006F947E70000FF
:10297000200100044331000810B5040002D0E06FCC
:1029800010B107E0012010BD002084F87800204637
:1029900000F026F82420E0672068016821F001019A
:1029A0000160606A10B1204600F013FB204600F081
:1029B000B7FC0128E7D02068416821F490414160CC
:1029C0002068816821F02A0181602068016841F057
:1029D000010101602046BDE8104000F05EBB000030
:1029E00010B586B0044614216846FDF7F9FE174974
:1029F0002068884228D11648C16941F40031C1617C
:102A0000C16901F400310591416941F4003141612E
:102A10004069694600F40030059048F204000090D7
:102A200002200190002002900320039007200490D0
:102A30004FF09040FEF77AFE002205212620FFF796
:102A40002BF82620FFF71AF806B010BD004400400E
:102A50000010024030B4D0F88030202B02D0022089
:102A600030BC704791B18AB10023036603685B688C
:102A70001B0208D5046854E8003F43F0806344E833
:102A80000035002DF6D130BC00F0EABC0120E7E7AC
:102A900030B400680C49884214D10C48C1780279DE
:102AA000491C01F03F01914204D0027A084BC478DE
:102AB0001A55C170054906480122083130BC9838C2
:102AC000FFF7C8BF30BC7047004400400000002042
:102AD000C80100202DE9F8430446C06F9846164609
:102AE0000D46202802D00220BDE8F88395B18EB1B2
:102AF0000020C4F884002120E067FEF739FFA4F825
:102B000050608146A4F85260A0682027B0F5805F2D
:102B100002D003E00120E7E7206910B12E4600252E
:102B200010E000260EE08021204600F0F5FCC0B940
:102B3000D6B116F8010B21680885B4F85200401E82
:102B4000A4F85200B4F852004B464FF00002CDF802
:102B500000800028E7D14FF04001204600F0DCFC67
:102B600038B1E7670320BFE735F8020BC0F3080070
:102B7000E1E7E7670020B7E77047FEE730B589B0C7
:102B8000002406940794182168460894FDF728FE4F
:102B900018484FF0A041012501604FF40031C0E911
:102BA00001140461447680F82040C0E90A54C561EC
:102BB000C46080F830400421416104764463FEF72C
:102BC0005BFB90B906A90B480694FEF739F960B98A
:102BD0000B2000900394CDE9015404946946054804
:102BE0000594FEF79DF9002801D0FEF7C5F809B05D
:102BF00030BD0000940000202DE9F04786B014217C
:102C00006846FDF7EDFD2F48416941F480014161BF
:102C1000416901F480010591416941F4003141614C
:102C2000416901F400310591416941F4802141611C
:102C30004069DFF8948000F4802005900022032191
:102C40004046FEF790FE40F2F3374FF090490022E5
:102C500039464846FEF787FEDFF870A000227A2149
:102C60005046FEF780FE0326012500240096CDE99C
:102C70000154694640460394FEF758FD0097CDE99C
:102C80000154694648460394FEF750FDA802CDE979
:102C90000004694648460294FEF748FD7A200090F9
:102CA000CDE90154694650460394FEF73FFD009577
:102CB000CDE9016469465046FEF738FD06B0BDE82F
:102CC000F087000000100240001400480004004893
:102CD00010B588B000241448009401940294039421
:102CE000049405944FF080410694C0E90014611EDD
:102CF000C0E9024104618461FFF73EFB78B94FF4FB
:102D00008050009069460848FFF7B6FB38B9049434
:102D100004A905480694FFF7F5FA002801D0FEF74C
:102D20002BF808B010BD0000E40000200C4810B5DE
:102D30000A4901604FF416414160002181600C2274
:102D4000C160C0E904128161C16101624162FFF7A3
:102D500013FE002801D0FEF70FF810BD004400401C
:102D600030010020FEE7FEE7012000F099FC40F66C
:102D7000FF7A0026554637462848FEF70FFC022109
:102D80002648FEF797FB48B92448FEF771FA84B24B
:102D9000AC4200D22546B44200D926467F1C402FC3
:102DA000EAD3AE4201D3701B00E000201D4C85B277
:102DB0001B49A078636A4FF0FF3931F8102021F8E1
:102DC00010509A1A5119401C616200F00700A0705F
:102DD000C1F3CF064946A06B00F010FFB4F80A809B
:102DE000A789A06B00F080FF4946E06B00F006FF6A
:102DF0003A464146304601F0BFFC6078E06B00F097
:102E000073FF4946E06B00F0F9FEE6812582E06B36
:102E100000F06AFF642000F09BFEAAE79400002007
:102E2000B80100200000002010B5502080F3118868
:102E3000BFF34F8FBFF36F8F02F0FAFB18B1044955
:102E40004FF080500860002080F3118810BD000012
:102E500004ED00E030B58FB028216846FDF7C0FCD6
:102E600014210AA8FDF7BCFC02250120049000955E
:102E70001020059000244FF42010CDE9084007955C
:102E80006846FEF757FF60B90F20CDE90A056802D2
:102E9000CDE90C4001210AA80E94FEF72FFE002870
:102EA00001D0FDF769FF0FB030BD00000248016896
:102EB00041F470010160704788ED00E00148FFF7C0
:102EC0004CBB0000E40000200148FFF746BB0000B7
:102ED00034000010F0B502681E4B1F4F4FF0804CBD
:102EE000984203D0604501D0B84203D122F070046B
:102EF0004A682243194C1A4D1A4E984209D060452F
:102F000007D0B84205D0A04203D0A84201D0B042B9
:102F100003D122F44077CA683A434F6922F0800215
:102F20003A4302608A68C2620A688262984205D0A7
:102F3000A04203D0A84201D0B04201D10969016387
:102F4000012141610169C90703D0016921F0010133
:102F50000161F0BD002C0140000400400040014030
:102F6000004401400048014010B5846842EA032251
:102F700024F47F440A432243826010BD826822F019
:102F800070020A4342F007018160704710B5036A7E
:102F9000046A24F001040462846924F0F00444EA21
:102FA000021423F00A020A438461026210BD10B5C4
:102FB000036A046A24F010040462846923F0A00305
:102FC00024F4704444EA023243EA0111826101624E
:102FD00010BD90F82410090706D501684A68436BB4
:102FE00022F400421A434A6090F82410C90706D020
:102FF00001684A68836A22F400321A434A6090F8F2
:103000002410890706D501684A68C36A22F4803211
:103010001A434A6090F82410490706D501684A68A7
:10302000036B22F480221A434A6090F82410C906E8
:1030300006D501688A68836B22F480521A438A603D
:1030400090F82410890606D501688A68C36B22F4BB
:1030500000521A438A6090F82410490611D501687D
:103060004A68036C22F480121A434A60016CB1F57D
:10307000801F06D101684A68436C22F4C0021A43DB
:103080004A6090F82410090606D501684A68806CE9
:1030900022F4002202434A6070472DE9F8430026DB
:1030A0000446C0F88460FEF763FC80462068006830
:1030B0004FF0200500076FF07E4712D543460022EF
:1030C00029042046009700F027FA50B1216851E802
:1030D000000F20F0800041E80002002AF6D1E567E9
:1030E00021E020680068400722D5434600224FF4C3
:1030F00080012046009700F00FFAC8B1216851E81E
:10310000000F20F4907041E80002002AF6D12068F8
:10311000083050E8001F21F0010140E80012002AA9
:10312000F5D1C4F8805084F878600320BDE8F883B6
:10313000E567C4F8805044F8606F6660267600202A
:10314000F4E710B5406A0021A0F85A10A0F8521018
:10315000FFF7B5FA10BD016851E8002F22F4907214
:1031600041E80023002BF6D10168083151E8002F17
:1031700022F0010241E80023002BF5D1016E012964
:1031800008D1026852E8001F21F0100142E8001344
:10319000002BF6D12021C0F8801000210166816645
:1031A000704710B5B0F85C20D0F880300168222B51
:1031B00004D0886940F00800886110BD898C436D97
:1031C00011401980416D891C4165B0F85A10491EA3
:1031D000A0F85A10B0F85A100029EED1026852E84F
:1031E000001F21F4907142E80013002BF6D1016812
:1031F000083151E8002F22F0010241E80023002BA2
:10320000F5D12021C0F88010002181664166026856
:103210005268120208D5036853E8002F22F080623A
:1032200043E80024002CF6D1026E012A02D0FFF7F9
:103230002FFC10BD0166026852E8001F21F010014A
:1032400042E80013002BF6D10168CA69D243D206C6
:1032500001D410220A62B0F85810FFF72EFA10BD00
:1032600010B5B0F85C20D0F880300168222B04D073
:10327000886940F00800886110BD898C1140426D5A
:103280001170416D491C4165B0F85A10491EA0F8F3
:103290005A10B0F85A100029EED1026852E8001F07
:1032A00021F4907142E80013002BF6D10168083137
:1032B00051E8002F22F0010241E80023002BF5D154
:1032C0002021C0F8801000218166416602685268A2
:1032D000120208D5036853E8002F22F0806243E809
:1032E0000024002CF6D1026E012A02D0FFF7D0FB99
:1032F00010BD0166026852E8001F21F0100142E88B
:103300000013002BF6D10168CA69D243D20601D45A
:1033100010220A62B0F85810FFF7CFF910BD000074
:1033200070B5044680682169E26908436169002537
:103330001143226808431168434B1940014311604F
:1033400020684168E26821F4405111434160A1695D
:10335000206A084321688A6822F4306202438A6046
:103360003A492068884210D13948006B10F00300B8
:1033700011D0012805D0022805D003280DD1022143
:103380000CE004210AE0082108E03249884202D01A
:103390003149884201D1002100E01021E3694FF456
:1033A00000402E4A4FF6EF76834226D1092941D2BA
:1033B000DFE801F005080B400D4040401000FEF72B
:1033C00061FC06E0FEF776FC03E0104602E0FEF743
:1033D00089FC80B34100606801EB5001B1FBF0F063
:1033E000A0F11001B14225D84FF6F0710140C0F3B1
:1033F000420001432068C16021E009291AD2DFE8B8
:1034000001F005080B190D1919191000FEF73AFC07
:1034100006E0FEF74FFC03E0104602E0FEF762FC18
:1034200048B1616800EB5100B0FBF1F0A0F1100170
:10343000B14201D9012502E0216880B2C8600020B4
:10344000A066E066284670BDF369FFEF00380140D2
:1034500000100240004400400048004000127A0082
:1034600030B54165A0F85820A0F85A2000228266A5
:1034700081684FF48055FF23A94204D1016969BBDB
:1034800040F2FF1130E07F2431B3B1F1805F28D0EA
:10349000A0F85C20C0F884202221C0F880100168C8
:1034A000083151E8002F42F0010241E80023002BCF
:1034B000F5D18168A94201D10169D9B11449816668
:1034C0000169C9B1016851E8002F42F4907241E8E6
:1034D0000023002BF6D118E0016941B9A0F85C3057
:1034E000D8E7016919B13F21A0F85C10D2E7A0F834
:1034F0005C40CFE707498166026852E8001F41F04F
:10350000200142E80013002BF6D1002030BD00005E
:1035100061320008A33100082DE9F04799461746AB
:103520000D4604464FF00008089E33E0701C31D071
:10353000FEF71EFAA0EB0900B04218D8BEB1206811
:103540000168490726D5802D24D0402D22D0C1699D
:10355000C94309070DD4082505622046FFF7FBFD86
:10356000C4F8845084F878800120BDE8F0870320F7
:10357000FBE7C069C04300050CD421684FF400602C
:1035800008622046FFF7E7FD2020C4F8840084F895
:103590007880ECE72068C06935EA000004D000209C
:1035A000B842C3D00020E0E70120F9E70148FFF767
:1035B00087B80000300100209AB04FF0FF3B1C4C50
:1035C00001F0B0F85D465946E06B00F017FB278A22
:1035D000B4F80E9094F80180E06B00F085FB29466A
:1035E000A06B00F00BFBB4F80AA0A6892578A06BAD
:1035F00000F07AFB0F4B0F490FA253F8353018310A
:10360000CDE903638DE8800651F82830502105A8E4
:10361000FCF712FF002807DD502805D282B23223C2
:1036200005A91248FFF756FA642000F091FAC7E79F
:1036300000000020E05A00085B25735D2070703D9B
:10364000253475206176673D253475205741524EEB
:103650003D257520414C41524D3D257520707265C8
:103660007365743D25730D0A0000000030010020D1
:10367000FEE70907090E002804DB00F1E02080F8CE
:103680000014704700F00F0000F1E02080F8141DD6
:10369000704730380A2801D2012070470020704757
:1036A0002DE9F04192B00546032800D300251B4CBC
:1036B0004FF0FF373946A06B00F0A0FA2570DFF815
:1036C000608008EBC506B0886081F088A081A06B9F
:1036D00000F00AFB3946E06B00F090FA00276770B3
:1036E000E06B00F001FB6761A761F188B088CDE96C
:1036F000000158F835300BA2402102A8FCF79CFECF
:10370000002807DD402805D282B2322302A90D48E5
:10371000FFF7E0F912B0BDE8F081000000000020E2
:10372000E05A00085B5052455345545D20257320F4
:10373000205741524E3D257520414C41524D3D256B
:10374000750D0A003001002070B54FF480614FF014
:103750009040FEF7FBF8114C30B1A0790125032809
:1037600018D3E07920B115E0A0790025401C12E0C3
:103770004FF0FF31A06B00F041FA20780321401C8C
:10378000B0FBF1F201FB1206A06B00F0ADFA30467F
:10379000FFF786FF0020A071E57170BD00000020DA
:1037A000002100F0AFB808B500EB400080000090A9
:1037B00001E000BF0846411E0091FAD208BD10B5D5
:1037C000044606E00121641C00F09CF83220FFF75B
:1037D000EAFF20780028F5D110BD10B540B141F0C6
:1037E000C000FFF7DDFFBDE810403220FFF7DBBF70
:1037F00041F08000F5E7000070B58AB01C460D4628
:10380000F2B300EB40014900B1FBF2F1C9B2062965
:1038100000D9062149228DF8002064228DF801206C
:1038200078238DF802303A238DF803304FF47A7301
:10383000B0FBF3F630368DF80460B0FBF3F603FB13
:103840001600B0FBF2F330338DF80530B0FBF2F325
:1038500002FB13000A22B0FBF2F330338DF806307E
:10386000B0FBF2F302FB130030308DF8070020208C
:103870008DF808005B208DF8090000206A4600E002
:1038800003E0884203D2FF2302E00021C2E72023A5
:103890001618401CC0B2B3720628F0D35D208DF814
:1038A0000F0000268DF810602022102105A8FCF7DB
:1038B0008FFF13488DF8246050F83400016805919B
:1038C000416806910089ADF81C000D48243050F87D
:1038D00025000168CDF81E108088ADF82200002177
:1038E0000846FFF77AFF6846FFF769FF00210120CD
:1038F000FFF773FF05A8FFF762FF0AB070BD000075
:10390000E05A000870B5044609B1012200E0002227
:10391000274D01212846FEF726F8002202212846DD
:10392000FEF721F84FF0904504F0010201212846EE
:10393000FEF719F8C4F3400202212846FEF713F8F7
:10394000C4F3800202211B48FEF70DF8C4F3C00245
:1039500010212846FEF707F8C4F30012202128465C
:10396000FEF701F8C4F3401240212846FDF7FBFFA3
:10397000C4F3801280212846FDF7F5FFE2094FF4D9
:1039800080712846FDF7EFFF0122540221462846A8
:10399000FDF7E9FF0120FFF706FF00222146284638
:1039A000FDF7E1FFBDE870400120FFF7FCBE00001D
:1039B000001400480004004886B0FDF7E7FFFFF759
:1039C00049FAFFF719F9FFF783F9FFF7AFF9FFF7A6
:1039D000D5F818216846FCF703FF0B200125CDE937
:1039E000000500240520CDE90204049469464F48EF
:1039F0000594FDF795FAD0B900214C48FDF7D0F9B0
:103A0000A8B914216846FCF7EBFEA8028DE8310046
:103A10004FF0904569462846FDF788FE43494FF42C
:103A2000E1309C3148600846FEF7A6FF08B1FDF77B
:103A3000A3F93F4C012210212046FDF794FF0022FC
:103A400020212046FDF78FFF002240212046FDF770
:103A50008AFF00224FF400712846FDF784FF354CA1
:103A6000002201212046FDF77EFF00220221204690
:103A7000FDF779FF1E20FDF747FE3820FFF790FE87
:103A80003220FFF790FE0C20FFF78AFE3220FFF76E
:103A90008AFE0120FFF784FE0220FDF735FE062096
:103AA000FFF77EFE3220FFF77EFE234C2378A289AB
:103AB00000210846FFF7A0FE1C48012204F108017E
:103AC0009C30FEF7C7FF19484FF4FA73E4221B49F4
:103AD0009C30FEF7FFFF00F055F81848503800F012
:103AE000C3F8A0631548403800F0BEF8134AE063FD
:103AF000E03A0021124800F025F9104AA062BC3AD1
:103B00000021104800F01EF90C4AE062983A0021AA
:103B10000D4800F017F9094A2063743A00210B4858
:103B200000F010F9606300F049F8FEE7940000200F
:103B3000000400480014004800000020105B00084A
:103B4000692D0008310D0008B9350008230D000863
:103B500010B5EFF3058149B9EFF3108131B9084988
:103B60000968022905D1EFF3118111B16FF0050445
:103B700003E0002408B100F0ADFF204610BD0000B6
:103B800018000010EFF3058058B9EFF3108040B92A
:103B900009490868022801D030B109E0EFF311802B
:103BA00030B16FF0050070470120086000207047B9
:103BB0004FF0FF30704700001800001010B5EFF311
:103BC000058060B9EFF3108048B90B4908680228F6
:103BD00002D0012806D00BE0EFF3118040B16FF066
:103BE000050010BD0220086001F024F8002010BD7F
:103BF0004FF0FF3010BD0000180000102DE9F0411B
:103C00000D46014621F0010001F001014FF00004D2
:103C1000EFF305824AB9EFF3108232B9114A126804
:103C2000022A05D1EFF3118212B16FF0050416E0FC
:103C300048B100296FF001066FF00207294608D04D
:103C400001F02AFC07E06FF0030408E035B13446C8
:103C500005E001F065FB0128F8D100E03C46204674
:103C6000BDE8F0811800001070B505464FF0000463
:103C7000EFF30580A0BBEFF3108088BB1948006804
:103C8000022802D1EFF3118050BB0DB1686800E04B
:103C90000020C10701D0012600E0002600071FD444
:103CA0006DB1D5E9021021B1502819D31EB10420FD
:103CB00002E020B114E0012001F0BFF805E00EB1F0
:103CC000042000E0012001F0ADF8040008D00DB19F
:103CD000296800E0002100F0C7FE0EB144F00104A5
:103CE000204670BD1800001070B5014621F001009B
:103CF00001F001014FF00004EFF305824AB9EFF340
:103D0000108232B90E4A1268022A05D1EFF31182ED
:103D100012B16FF0050411E028B16FF0020529B16E
:103D200001F042FA07E06FF0030407E000231A46AF
:103D3000194601F02BF9012800D02C46204670BD11
:103D400018000010F0B585B04FEA01034FF00004F1
:103D5000EFF305810394A1BBEFF3108189BB2149E7
:103D60000968022902D1EFF3118151BB48B38026C3
:103D700018218DF8104004AD42B3176807B13D46D5
:103D800097691FB139467F1E382F02D21779FF0776
:103D900002D0002005B0F0BD576907B1BE08D2F8C7
:103DA00008C0BCF1000F0DD0D4685C2C18D3126988
:103DB0003AB137B18DE806103246294601F0F3FBDF
:103DC00003900DE0D7685FB912694AB903AACDE93B
:103DD0000012B2B2294601F0B9FB012800D00394C9
:103DE0000398D7E7180000102DE9F041134C0F4657
:103DF000054666692068001D00F03CFD681C07D17F
:103E000037B12168BDE8F0410D48091D00F082BDC1
:103E100020683544B5424560216805D2A068BDE8F8
:103E2000F041091D00F05EBD6068091D00F05AFDFB
:103E3000206B854200D22563BDE8F0814C00002054
:103E4000700500102DE9F041054600F06FFD2D4C86
:103E50002069401C206120682B4F10B1E06930B30D
:103E60002BE025602069012827D1002606EB86007B
:103E700007EB800000F028FD761C382EF6D323488F
:103E800000F022FD2148143000F01EFD1F482830AC
:103E900000F01AFD1D483C3000F016FD1B48503064
:103EA00000F012FD194860601430A06005E0206841
:103EB000E96AC06A884200D82560E06A401CE06276
:103EC0006864E86AA169884200D9A06100EB8000BB
:103ED00007EB8000291D00F01DFD00F047FDE069A3
:103EE00000280CD02068E96AC06A884207D20849D5
:103EF0004FF080500860BFF34F8FBFF36F8FBDE866
:103F0000F08100004C000020C000001020050010CF
:103F100004ED00E038B500F009FD104CA068C8B908
:103F20000F4800F0D1FC0E48143000F0CDFC0C48D6
:103F30002060143060600A4B00202833009003F1A9
:103F4000500210210A2000F0A9FFA06010B105A1C5
:103F500000F08AFDBDE8384000F008BD0400001004
:103F600084050010546D72510000000030B4026CE2
:103F70000B46002A0BD0C1681144C1604468A142BD
:103F800001D30168C16030BC1846FCF7DCBB30BC13
:103F900070472DE9F041856B174604460026026CF8
:103FA00082B1C7B1E068FCF7CEFBE168206C091A6A
:103FB000E1602268914202D26168081AE060022F33
:103FC00016D017E02068A8B9606801F095FB064696
:103FD000002060600EE0A068FCF7B5FB216CA068D3
:103FE0000844A0606168884204D32068A06001E0B2
:103FF00005B16D1E6D1CA5633046BDE8F08110B59E
:10400000044690F8590058B101280CD002280FD06E
:10401000502080F31188BFF34F8FBFF36F8FFEE7FF
:10402000206B00F0B7FC2046BDE8104000F0B2BCA9
:1040300010BD000010484FF40051420706D0C01DCB
:104040000D4920F00700411AC1F500510B4A002329
:104050000144C2E900030839103A21F00701116058
:104060004B600B600B1AC0E9001393604FF00040E7
:104070005360D06070470000000900202C00001041
:10408000144E154CA6F29C474FF08058DFF84C9028
:1040900012E000BF00F04AFCF068C568281D00F07F
:1040A000E9FB2069401E2061E068401EE06000F0EE
:1040B0005DFC2846FFF7A3FFE0680028EAD13868D6
:1040C0000128F9D9C9F80080BFF34F8FBFF36F8F74
:1040D000F2E700005C0500104C00002004ED00E059
:1040E000002807D00021416001600B460A46C160EC
:1040F00000F04CBF7047000070B51D46049C51B1E4
:10410000C4F80020C4E90F010121204600F0FAFEA6
:1041100084F84C5070BD2460F4E72DE9F0470E465A
:10412000DDE909841746824691009946089DA5223B
:10413000206BFCF74DFB6FF00301206B01EB870157
:10414000084420F00707780707D0502080F3118833
:10415000BFF34F8FBFF36F8FFEE72218315C82F8F9
:104160003410315C11B1401C1028F6D3002684F8BD
:104170004360382D00D33725E562C4E91356201D6E
:1041800000F0ADFB04F1180000F0A9FB2461C5F1BB
:1041900038006462A061666584F858604A465146FA
:1041A000384600F047FA2060B8F1000F01D0C8F897
:1041B0000040BDE8F087000030B5114900E011462D
:1041C0000A688242FBD34B685C18844203D1406882
:1041D00018444860084643681C18944209D1084CAA
:1041E000103C2468A24209D052681A4442600A680E
:1041F00012680260814200D0086030BD0460F9E7B7
:104200002C00001070B5002441600B4D00619142FC
:1042100006D8D11A8269914206D2011D686807E06A
:104220009A4203D2994201D3012403E0011D286878
:1042300000F058FB204670BD0400001010B5044685
:1042400000F074FBA06B28B15FF0000400F08EFB5F
:10425000204610BD0124F9E730B589B0304D55E056
:104260000498002806DADDE90601059A90470498CB
:1042700000284BDB069C606910B1201D00F0FAFAA3
:1042800002A800F0B9F8024604980A283ED2DFE8F6
:1042900000F00505053D263705053D260598A16971
:1042A000034601442046FFF7ADFF00B3616A204694
:1042B0008847E069012829D1002000900598A1696C
:1042C000002342181946204601F05CFB78B95020C3
:1042D00080F31188BFF34F8FBFF36F8FFEE7059810
:1042E000A06128B1811813462046FFF78BFF0DE02F
:1042F000502080F31188BFF34F8FBFF36F8FFEE71D
:1043000094F82C0010B9204600F044FB002204A9C8
:10431000A86800F069FF0028A2D109B030BD0000F4
:10432000040000102DE9FC410F46054600F0C6FCD4
:1043300001A800F061F80446019818B101F090FA64
:10434000BDE8FC81224EAFB170680068A8B30027B9
:10435000291B3A46B06800F09BFB01F081FA002867
:10436000EED11C494FF080500860BFF34F8FBFF370
:104370006F8FE5E7A542EBD801F072FA3068274667
:10438000C068C468201D00F075FAE069012810D1EA
:10439000A0692B4641193A462046FFF733FF40B14A
:1043A00000200346014600902A46204601F0EAFA22
:1043B00020B1616A20468847C2E707E0502080F3B9
:1043C0001188BFF34F8FBFF36F8FFEE70127BFE761
:1043D0000400001004ED00E006484168096829B1B6
:1043E0004168C968C9684968016370474FF0FF3187
:1043F000FAE700004C00002070B5054601F012F904
:10440000064E04463069844203D200F009F80120C8
:1044100000E0002028602046346170BD04000010D8
:10442000F8B5194D1FE0C068C4680668201D00F08B
:1044300021FA616A20468847E069012813D1A06902
:104440003044B04206D924616060211D286800F024
:1044500049FA08E000200346014600903246204613
:1044600001F090FA38B1286801680029DBD1696849
:10447000C5E90010F8BD502080F31188BFF34F8FBD
:10448000BFF36F8FFEE7000004000010084840688B
:10449000401C4FF0500080F3118804D0BFF34F8FC1
:1044A000BFF36F8FFEE7BFF34F8FBFF36F8FFEE752
:1044B00088000020074C2068016841B1C0680021D5
:1044C000D0F80000FFF72EFFFFF7C6FEF3E701214B
:1044D0000020F7E7040000102DE9F041044600F049
:1044E00025FA94F9455004F1240609E0606A48B1C0
:1044F000304601F07DF908B100F01AFB6D1E6DB277
:10450000002DF3DC4FF0FF3684F8456000F02EFA02
:1045100000F00CFA94F9445004F1100709E0206906
:1045200048B1384601F064F908B100F001FB6D1E96
:104530006DB2002DF3DC84F84460BDE8F04100F07A
:1045400015BA00002DE9F0410546002700F0B6FB42
:10455000314E306808B9FFF76DFDF06805424BD168
:10456000C5B3083568070ED005F00700C0F1080094
:104570000544680707D0502080F31188BFF34F8FA0
:10458000BFF36F8FFEE72DB37068854234D82248A1
:10459000103001460C6801E020460C466168A942D3
:1045A00002D221680029F7D131688C4224D00768F3
:1045B0002168016060680837411B10290FD9601914
:1045C000420708D0502080F31188BFF34F8FBFF30C
:1045D0006F8FFEE710E041606560FFF7EDFD6168F9
:1045E0007068401A7060B268904200D2B060F068A3
:1045F00001430020C4E9000101F032F9780707D037
:10460000502080F31188BFF34F8FBFF36F8FFEE709
:104610003846BDE8F08100001C000010044908681D
:1046200018B10868026D521C0265086870470000E6
:104630004C00002010B5031F4FF080741C601B1F3E
:1046400021F001011960191F044B0B6014390A6035
:10465000091F6FF0020244380A6010BD8D44000843
:104660002DE9F04105460D2223A1FCF721F8264C47
:104670004FF0FF3740F63C7630B10E2223A128469A
:10468000FCF716F8D0B115E005F10D00FCF703F8C2
:1046900005463946A06BFFF7B1FAA5F16400B042B8
:1046A00005D8A189A8B2884201D2608118E0A06B28
:1046B000FFF71AFB32230522184918E005F10E0016
:1046C000FBF7E9FF05463946A06BFFF797FAA5F11E
:1046D0006400B042EBD86189A8B28842E7D9A081D2
:1046E000A06BFFF701FB0D4932230422491FBDE8EF
:1046F000F0410B48FEF7EEB9534554205448522080
:104700005741524E20000000000000205345542025
:1047100054485220414C41524D200000295A000873
:104720003001002070B50025114E124C1AE01048DF
:1047300021794038405C2179491C01F03F01217109
:104740000D2804D00A2802D061793F2907D3607967
:10475000355410B10648FFF783FF657102E07054CD
:10476000491C61712079E1788842E0D170BD000078
:10477000080200200000002070B53C4C6378002542
:1047800003B3012B25D0022B38D065706078384EEA
:1047900088B301284ED0022813D1002210213046C0
:1047A000FDF7E1F8012240213046FDF7DCF8E06931
:1047B000401CE061022804D320213046FDF7CBF8ED
:1047C000E56170BD6561A5618842DFD3012060703D
:1047D000DCE7A561884201D265700DE090420BD301
:1047E0006069401C60610528D0D30220607065615B
:1047F000E5612562CAE70CE06561C7E7656188424B
:1048000005D2A069401CA0611E28BFD36570A561B8
:10481000BCE7012210213046FDF7A5F80022202137
:104820003046FDF7A0F8002240213046FDF79BF806
:10483000E56118E0002210213046FDF794F80122CE
:1048400020213046FDF78FF8206A401C20620128A5
:1048500001D8012200E0002240213046FDF783F814
:10486000206A0A28ADD3256270BD00000000002038
:1048700000040048D0E9013201699A60D0E90123BF
:104880005A604A68824201D182684A60002202610D
:104890000868401E0860086870470000034B03600A
:1048A00003F15C000860802010607047480200201F
:1048B000044B036003F15C0008604FF480701060EB
:1048C00070470000A404002000F108014FF0FF32FF
:1048D000C0E90112C160016100210160704700213F
:1048E0000161704730B50B685A1C02D000F1080214
:1048F00002E0026904E02246546825689D42FAD924
:1049000053684B6099608A60516008610168491C76
:10491000016030BD42684A6093688B60936859605B
:10492000916008610168491C01607047502080F364
:104930001188BFF34F8FBFF36F8F0A494868401C3F
:10494000486001280CD10848006810F0FF0F07D01C
:10495000502080F31188BFF34F8FBFF36F8FFEE7B6
:10496000704700008800002004ED00E00849486816
:1049700028B1401E486001D180F311887047502053
:1049800080F31188BFF34F8FBFF36F8FFEE70000F6
:104990008800002070B5002827D0144DA0F108042D
:1049A0006168E868014207D1502080F31188BFF3A5
:1049B0004F8FBFF36F8FFEE722683AB1502080F32C
:1049C0001188BFF34F8FBFF36F8FFEE781436160A4
:1049D00000F074F960686968084468602046FFF771
:1049E000EBFBBDE8704000F03BBF70BD1C00001049
:1049F0004FF0E02000210161816105494FF47A7296
:104A00000968B1FBF2F1491E41610721016170475C
:104A10000000001010B5FBF773FC114910280ED3ED
:104A200000F1E02090F8F0030A78904207D250207D
:104A300080F31188BFF34F8FBFF36F8FFEE70948F4
:104A40000068896800F4E060884207D9502080F34C
:104A50001188BFF34F8FBFF36F8FFEE710BD0000CB
:104A6000880000200CED00E010B5084B002200BFCC
:104A700053F832401CB1521C082AF9D310BD43F838
:104A8000321003EBC201486010BD0000800000102E
:104A900070B515460E460446FFF748FF94F94410DA
:104AA0000020491C01D184F8440094F94510491CA8
:104AB00001D184F84500FFF759FFA06B28B92A46B9
:104AC000314604F1240000F051F82046BDE8704062
:104AD000FFF702BD10B5020014D00F48806B38B14B
:104AE000502080F31188BFF34F8FBFF36F8FFEE725
:104AF00000F0E4F800211046FFF776F900F0B0FE70
:104B0000002807D105494FF080500860BFF34F8F50
:104B1000BFF36F8F10BD00004C00002004ED00E0DB
:104B200002498A6A02604969416070474C0000206E
:104B300001490120486270474C00002010B50C4626
:104B400050B1094909681831FFF7CCFE2046BDE88D
:104B500010400121FFF748B9502080F31188BFF3BE
:104B60004F8FBFF36F8FFEE74C00002070B51446E7
:104B70000D4668B10A4909681831FFF7CBFE0CB140
:104B80004FF0FF3521462846BDE87040FFF72CB9AD
:104B9000502080F31188BFF34F8FBFF36F8FFEE774
:104BA0004C00002070B504003ED0226DA2B1E06C34
:104BB000884200D30146E06A884235D0012A33D1C9
:104BC0001A4D2A6894420FD1502080F31188BFF308
:104BD0004F8FBFF36F8FFEE7502080F31188BFF334
:104BE0004F8FBFF36F8FFEE7E162A269002A02DBFD
:104BF000C1F13801A1610E4E00EB8000616906EB46
:104C00008000814210D1201DFFF734FEE06AA969BF
:104C1000884200D9A86100EB800006EB8000211DCE
:104C2000BDE87040FFF776BE70BD00004C0000206C
:104C3000C000001030B587B00024039405AA04A971
:104C400003A80494FFF72AFEDDE903010094CDE9EF
:104C50000110002315A11748059A00F0A4FC164D79
:104C6000002868631FD000F05DFE012809D0401CB9
:104C700019D1502080F31188BFF34F8FBFF36F8F8E
:104C8000FEE7502080F31188BFF34F8FBFF36F8F83
:104C90004FF0FF3028630120E8616C6107B0BDE888
:104CA000304000F045B807B030BD000049444C45E5
:104CB00000000000814000084C0000200248816B89
:104CC000491C8163704700004C000020164810B555
:104CD000816B11B10121416210BD002141628169E6
:104CE000124A01E0B9B1491E01EB810352F82330A9
:104CF000002BF7D001EB810302EB830202F10804E1
:104D000053685B685360A34201D15B685360DA6803
:104D10000260816110BD502080F31188BFF34F8F76
:104D2000BFF36F8FFEE700004C000020C0000010B2
:104D30001CB537480168374A914207D1502080F3AB
:104D40001188BFF34F8FBFF36F8FFEE700683149C3
:104D5000491E884207D1502080F31188BFF34F8F3E
:104D6000BFF36F8FFEE72C4908780190FF20087091
:104D700008788DF800009DF800009DF8002000F0F4
:104D8000F000904207D0502080F31188BFF34F8F7E
:104D9000BFF36F8FFEE79DF80000204B00F050003E
:104DA00018700720986005E09DF8002052008DF8EB
:104DB0000020401E9DF800201206F5D498600328BC
:104DC00007D0502080F31188BFF34F8FBFF36F8F50
:104DD000FEE74FF440709860019808700C4820304E
:104DE000016841F470010160016841F070410160A7
:104DF000FFF7FEFD00205860FBF74AFA08480168FB
:104E000041F040410160FBF72FFA00201CBD00007B
:104E100000ED00E071C20F4100E400E088000020D6
:104E200034EF00E010B502460021012000F012F836
:104E30000446FFF755F9204610BD38B50B46002251
:104E400000901146012000F029F80446FFF748F9C8
:104E5000204638BDF8B517460E46050014D0DEB121
:104E600005FB06F05030FFF76DFB04000AD0002070
:104E700084F8460004F150023B463146284600942F
:104E8000FFF73AF92046F8BD502080F31188BFF3B0
:104E90004F8FBFF36F8FFEE70020E3E738B5049D27
:104EA00018B153B1CAB181B120E0502080F311880C
:104EB000BFF34F8FBFF36F8FFEE7502080F3118851
:104EC000BFF34F8FBFF36F8FFEE7502080F3118841
:104ED000BFF34F8FBFF36F8FFEE739B1502080F3E0
:104EE0001188BFF34F8FBFF36F8FFEE750241C462E
:104EF000012384F846302B460094FFF7FDF8204646
:104F000038BD000070B50D46040025D0FFF70EFD3A
:104F1000D4E90F20216802FB001161600021A16328
:104F20002168A1600A46D4E90F01401E00FB01215F
:104F3000E16021464FF0FF3001F8440F487004F162
:104F400010008DB1FFF7C0FC04F12400FFF7BCFC9A
:104F5000FFF70CFD012070BD502080F31188BFF3D6
:104F60004F8FBFF36F8FFEE721690029F0D000F06B
:104F70003FFC0028ECD004494FF080500860BFF39C
:104F80004F8FBFF36F8FE3E704ED00E02DE9FF479C
:104F900082B01D468A464FF00008040003D0BAF1E3
:104FA000000F08D011E0502080F31188BFF34F8F1D
:104FB000BFF36F8FFEE7206C38B1502080F311886B
:104FC000BFF34F8FBFF36F8FFEE7022D0AD1E06B67
:104FD000012807D0502080F31188BFF34F8FBFF313
:104FE0006F8FFEE700F010FB3F4F4FF000094FF0CE
:104FF000805648B9049838B1502080F31188BFF327
:105000004F8FBFF36F8FFEE7FFF790FCA06BE16B54
:10501000884207D3022D05D00498D0B1B8F1000F13
:105020001AD01EE02A4651462046FEF7B2FF616ABA
:1050300019B104F1240000F0DBFB20B13E60BFF3A6
:105040004F8FBFF36F8FFFF791FC012006B0BDE8D3
:10505000F087FFF78BFC22E06846FFF761FD4FF019
:105060000108FFF783FCFFF729FEFFF75FFC94F9C7
:105070004400401C01D184F8449094F94500401C40
:1050800001D184F84590FFF771FC04A9684600F04F
:1050900023FA30B12046FFF71FFA00F0E1FB0020B1
:1050A000D4E7FFF743FCA06BE16B884213D1FFF715
:1050B0005DFC04F110000499FFF740FD2046FFF766
:1050C0000BFA00F0CDFB00289ED13E60BFF34F8F5E
:1050D000BFF36F8F98E7FFF749FC2046FFF7FCF915
:1050E00000F0BEFB90E7000004ED00E02DE9F04782
:1050F0001F4690468946040003D0B9F1000F08D03E
:1051000011E0502080F31188BFF34F8FBFF36F8FF2
:10511000FEE7206C38B1502080F31188BFF34F8F29
:10512000BFF36F8FFEE7022F0AD1E06B012807D093
:10513000502080F31188BFF34F8FBFF36F8FFEE7CE
:10514000FFF768FC5020EFF3118680F31188BFF35E
:105150004F8FBFF36F8FA06BE16B884206D3022F96
:1051600004D0002086F31188BDE8F08794F94550FB
:105170003A4649462046FEF70CFF681C04D06D1CD9
:1051800084F845500120EDE7606A0028FAD004F168
:10519000240000F02DFB0028F4D0B8F1000FF1D06E
:1051A0000121C8F80010EDE710B5040009D000F0A7
:1051B00025FA6168884214D1E068401EE06008D09A
:1051C0000DE0502080F31188BFF34F8FBFF36F8F36
:1051D000FEE700231A4619462046FFF7D7FE0120B6
:1051E00010BD002010BD00002DE9F747002683B058
:1051F0008A46040003D0BAF1000F08D011E0502015
:1052000080F31188BFF34F8FBFF36F8FFEE7206CE1
:1052100038B1502080F31188BFF34F8FBFF36F8FE9
:10522000FEE700F0F1F9DFF8F4804FF000094FF0ED
:10523000805748B9059838B1502080F31188BFF3E2
:105240004F8FBFF36F8FFEE7FFF770FBA56BC5B104
:1052500051462046FEF78AFE6D1EA563206950B1B7
:1052600004F1100000F0C4FA28B1C8F80070BFF3D0
:105270004F8FBFF36F8FFFF779FB012006B0BDE8BA
:10528000F087059808B11EB106E0FFF76FFB27E035
:105290006846FFF745FC0126FFF768FBFFF70EFDA8
:1052A000FFF744FB94F94400401C01D184F844907A
:1052B00094F94500401C01D184F84590FFF756FB56
:1052C00005A9684600F008F9002820460AD0FFF733
:1052D00003F900F0C5FA2046FEF7B0FF0028B3D06E
:1052E0000020CBE7FEF7AAFF90B104F12400059956
:1052F000FFF724FC2046FFF7EFF800F0B1FA002892
:10530000A2D1C8F80070BFF34F8FBFF36F8F9BE738
:105310002046FFF7E1F800F0A3FA95E704ED00E07E
:105320002DE9F343002683B00400354609D0206CF4
:1053300078B1502080F31188BFF34F8FBFF36F8F88
:10534000FEE7502080F31188BFF34F8FBFF36F8FBC
:10535000FEE700F059F9DFF83C814FF000094FF00B
:10536000805748B9049838B1502080F31188BFF3B2
:105370004F8FBFF36F8FFEE7FFF7D8FAA06BC8B16E
:10538000401EA063206810B9FFF748F960602069EB
:1053900050B104F1100000F02BFA28B1C8F80070E9
:1053A000BFF34F8FBFF36F8FFFF7E0FA012005B017
:1053B000BDE8F083049808B166B10FE03DB150201C
:1053C00080F31188BFF34F8FBFF36F8FFEE7FFF7B6
:1053D000CDFA5DE06846FFF7A3FB0126FFF7C6FAAA
:1053E000FFF76CFCFFF7A2FA94F94400401C01D1CE
:1053F00084F8449094F94500401C01D184F845900C
:10540000FFF7B4FA04A9684600F066F800282046C1
:1054100012D0FFF761F800F023FA2046FEF70EFFE6
:105420000028A9D09DB3FFF781FA606A50B3206BC2
:105430000068C0F1380126E0FEF700FFE0B1206807
:1054400038B9FFF773FA606800F096F90546FFF780
:105450008DFA04F124000499FFF770FB2046FFF752
:105460003BF800F0FDF9002886D1C8F80070BFF3C2
:105470004F8FBFF36F8F7FE72046FFF72DF800F0C7
:10548000EFF979E700216068FFF78CFB9FE7FFE702
:1054900000208CE704ED00E070B50D46040009D053
:1054A00000F0ACF8616888420CD1E068401CE06014
:1054B000012070BD502080F31188BFF34F8FBFF3E0
:1054C0006F8FFEE729462046FFF72AFF0028F0D01D
:1054D000E168491CE16070BD2DE9F0410C46050012
:1054E00011D0C4B1FFF722FA174B5A696E682068D1
:1054F000911B471C17D02F689B6A9F4219D0964278
:1055000017D8012410E0502080F31188BFF34F8F8B
:10551000BFF36F8FFEE7502080F31188BFF34F8FEA
:10552000BFF36F8FFEE70024FFF720FA2046BDE8A7
:10553000F081884205D9401A20602846FFF7F0FA2A
:10554000F1E700202060DCE74C0000202DE9FF5F40
:105550008346DDE90E87994616468A469000FEF797
:10556000F1FF05001CD05C20FEF7ECFF040014D016
:105570000020256384F85900CDE90240CDE9008779
:105580004B46324651465846FEF7C7FD2046FEF7C9
:1055900059FC012004B0BDE8F09F2846FFF7FAF956
:1055A0004FF0FF30F6E7F0B585B0DDE90B640A9DFA
:1055B000A6B1DCB15C2700972663022684F8596007
:1055C000002604AFCDE90246CDE90057FEF7A5FD60
:1055D0002046FEF737FC049805B0F0BD502080F35C
:1055E0001188BFF34F8FBFF36F8FFEE7502080F31A
:1055F0001188BFF34F8FBFF36F8FFEE7014800683C
:10560000704700004C0000200548C16919B1806B4B
:1056100018B1002070470120704702207047000039
:105620004C00002001484069704700004C000020F9
:105630002DE9F0412E4C0027A06B40B1206A401CA0
:105640002062606A00B101273846BDE8F0816669D2
:10565000761C666113D16068006838B1502080F311
:105660001188BFF34F8FBFF36F8FFEE76068A168AB
:105670006160A060A06A401CA062FEF7ADFE206BD6
:10568000DFF87080864209D36068006880B1606886
:10569000C068C568686886420DD220632068C06A09
:1056A00000EB800158F821000128CAD90127C8E77A
:1056B0004FF0FF30F1E7281DFFF7DCF8A86A18B1BA
:1056C00005F11800FFF7D6F8E86AA169884200D909
:1056D000A06100EB800108EB8100291DFFF71AF99A
:1056E000E86A2168C96A8842CED30127CCE7000066
:1056F0004C000020C000001070B504004FF0000105
:1057000033D01B4D2868844207D0502080F3118885
:10571000BFF34F8FBFF36F8FFEE7206D38B1401E90
:105720002065E36CE26A9A421FD040B11DE0502030
:1057300080F31188BFF34F8FBFF36F8FFEE7201DFB
:10574000FFF798F8E06CE062C0F13800A061E06A11
:10575000A969884200D9A861064900EB800001EBE5
:105760008000211DFFF7D6F80121084670BD00001A
:105770004C000020C000001070B504004FF0000085
:105780002BD0194DE16A2A68D26A914226D2A069CB
:10579000002804DB2868C06AC0F13800A061134EFD
:1057A00001EB8101606906EB8101884211D1201D66
:1057B000FFF760F82868C06AE062A969884200D9EA
:1057C000A86100EB800006EB8000211DFFF7A2F826
:1057D00002E02868C06AE062012070BDE16C2A68BE
:1057E000D26A9142F8D370BD4C000020C000001076
:1057F00070B5C068C46854B104F118000646FFF7DC
:1058000039F8144DA86B50B13146134815E05020BB
:1058100080F31188BFF34F8FBFF36F8FFEE7201D1A
:10582000FFF728F8E06AA969884200D9A8610B4906
:1058300000EB800001EB8000211DFFF76BF8E06AB0
:105840002968C96A884202D90120686270BD0020B7
:1058500070BD00004C00002048050010C000001082
:105860002DE9F0472C4D00242746A86B38B1FFF7EF
:105870005DF8A86B401EA863A86B40B146E05020BD
:1058800080F31188BFF34F8FBFF36F8FFEE7296955
:10589000224E0120D1B3A6F5916980463068E0B16F
:1058A000F068C46804F11800FEF7E4FF201DFEF75D
:1058B000E1FFE06AA969884200D9A86100EB800194
:1058C00009EB8100211DFFF725F8E06A2968C96A04
:1058D0008842E3D3C5F82480E0E70CB1FEF77CFDF5
:1058E0002C6A4CB14FEA0806FFF7A2FE00B16E62C7
:1058F000641EF9D100202862686A38B1084901277E
:1059000038070860BFF34F8FBFF36F8FFFF72EF894
:105910003846BDE8F08700004C0000204805001024
:1059200004ED00E010B586B0FEF7F4FA114CA06863
:10593000B8B100200390049005AA04A903A8FEF7BB
:10594000B7FFDDE9032102208DE8070000230AA14B
:105950000B48059AFFF727FEE06010B106B0012062
:1059600010BD502080F31188BFF34F8FBFF36F8FAE
:10597000FEE7000004000010546D722053766300AF
:10598000B54400082DE9FF411E46134602000A9D5A
:105990004FF0000016D0144CA768002F0FD0CDE9AF
:1059A00000130292062917DAFFF72EFE02284FF0A5
:1059B00000030FD000226946A068FFF7E7FA04B0A1
:1059C000BDE8F081502080F31188BFF34F8FBFF303
:1059D0006F8FFEE72A46EEE70023324669463846D7
:1059E000FFF784FBEBE700000400001010B500296E
:1059F0000AD00878002807D005487844FBF7DCF87F
:105A0000002801D0002010BD0248784410BD0000DD
:105A1000160300000E0300004FF04070E1EE100A84
:105A2000704700004F4B0D0A004552520D0A00000E
:105A3000845C00080000000000000000000000007E
:105A4000000000000004000018000000000000003A
:105A5000000000009C5C0008000000000000000046
:105A60000000000000000000000400001000000022
:105A70000000000000000000905C00080000000032
:105A80000000000000000000000000000004000012
:105A9000100000000000000000000000785C00081A
:105AA00000000000000000000000000000000000F6
:105AB00000020000180000000000000000000000CC
:105AC000B45C0008000000000000000000000000BE
:105AD000C45C00080000000000000000000000009E
